:020000040800F2
:1000000088170020E5250008C5010008C701000881
:1000100000000000000000000000000000000000E0
:10002000000000000000000000000000C9010008FE
:100030000000000000000000CB010008CD01000816
:10004000F7250008F7250008F7250008F725000820
:10005000F7250008F7250008F7250008710E0008AD
:10006000F7250008F7250008F7250008F725000800
:10007000F7250008F7250008F7250008F7250008F0
:10008000F7250008F725000800000000F725000804
:10009000F7250008CF010008F7250008F72500081C
:1000A000F7250008F7250008F7250008F7250008C0
:1000B000F725000800000000F725000800000000F8
:1000C00000F002F800F03EF80CA030C80838241800
:1000D0002D18A246671EAB4654465D46AC4201D180
:1000E00000F030F87E460F3E0FCCB6460126334274
:1000F00000D0FB1AA246AB4633431847684F0000B6
:10010000884F0000103A02D378C878C1FAD8520755
:1001100001D330C830C101D504680C6070470000BD
:100120000023002400250026103A01D378C1FBD813
:10013000520700D330C100D50B6070471FB51FBDFB
:1001400010B510BD04F074FE1146FFF7F7FF00F084
:1001500025F804F08CFE03B4FFF7F2FF03BC04F0B3
:1001600093FE000070B505460C46164602E00FCC23
:100170000FC5103E102EFAD2082E02D303CC03C5B1
:10018000083E042E07D301CC01C5361F03E02178B9
:100190002970641C6D1C761EF9D270BD10B501F07B
:1001A00039FC02F017FA00F057FF00F070FE002251
:1001B0000121034802F0D7F902F0BAF9002010BD7E
:1001C0005D0300087047FEE770477047704710B541
:1001D000064C0121204603F011FB002805D002F057
:1001E000F4F90121204603F015FB10BD0044014045
:1001F00010B5474801680122114301604168454A32
:10020000114041600168444A1140016001680122C7
:1002100092049143016041683F221204914341607E
:10022000C16A09090901C162016BFF22543291437D
:100230000163416B4908490041630021816000F07E
:100240002EF810BD70B5324D69680C20014033485E
:10025000334C03D0042901D0082901D0206014E0D8
:100260006A686968012392021B04160F1940B61CC4
:10027000002907D0E96A0907090F491C04F028FD85
:100280007043EBE727484643266068682449000628
:10029000000F091D085C2168C140216070BD38B5A0
:1002A00000201B4C00902068012109048843206035
:1002B0001D480168102211430160016801221143A9
:1002C0000160606860606068606060683F21090488
:1002D0008843606060680521C904084360600520A8
:1002E00002F01EFB206801210906084320602068F7
:1002F0008001FCD560688008800060606068022131
:100300000843606060680007800F0228FAD138BD9A
:10031000001002400CB8FFF8FFFFF6FE00127A0052
:100320000000002000093D000020024070B5044696
:100330000D46094804F014F8204604F014F8284645
:1003400004F014F804F015F804F01AF870BD10B5B4
:1003500004F00FF810BD00005555000010B501F075
:1003600066FF01F09DFFF8221C491D4801F09AFB31
:1003700040211C4801F032FC1A48503801F0E5FBDE
:1003800006220121184802F0EEF807220121174841
:1003900002F0E9F801221146154802F0E4F80522BE
:1003A0000121144802F0DFF804220121124802F072
:1003B000DAF802220121114802F0D5F803220121C6
:1003C0000F4802F0D0F8002002F0E3F810BD10B59D
:1003D00032210A2002F0E6F810BD0000FF050020DF
:1003E000AC0300206C0300202B050008AB0D0008B7
:1003F000AB100008230B00083D070008C5110008DA
:10040000E5050008F8480121017041708170C17054
:100410000021017141718171018441848184C18411
:10042000018541858185C18501864186C171017241
:1004300041728172C172017341738173C17301741E
:1004400041748174704710B500224378012104E0A3
:10045000445CA218491C92B289B29942F8D3110A9D
:10046000C154C018427010BDF8B5E04DE04801F02D
:1004700087FB86B20027DC4C53E0DD4801F076FBB9
:10048000E17E002942D0217F00292ED0617F68546F
:10049000491C6177A07F401E0006000EA0773ED168
:1004A00000226978012003E02B5C9A1892B2401C6C
:1004B0008842F9DB685C691849780002401890426C
:1004C0000BD1FF22C9492D328818FFF74BFEC948CE
:1004D00001F03AFA022001F0C6FAE776FF21277709
:1004E0002D31C24804F0F2FB19E0FF22411E2B32ED
:1004F000914208D2BD4A617F5054A07701202077F5
:10050000491C61770BE0E776277708E0FF2806D1E2
:10051000B64908700121E17627776177A777761EC3
:10052000B6B2002EA9D10120F8BD10B5FF24CCB081
:100530002D342146684604F0C9FBAF4800780028F6
:100540000DD1AB4822466946903001F0E1FA010036
:1005500005D0684601F0BBFB1E2001F084FA1E2185
:10056000062002F01FF84CB010BD70B59E4A01295C
:1005700006D0022908D0032912D0062909D114E097
:100580009949D263443103E09749491CD16347310B
:100590001165D16B00240D78984B012D0AD00DE028
:1005A0009149891CD1634A31F2E78F49C91CD16353
:1005B0003D31EDE7166D1D6835600C701B68012537
:1005C0001E189E4202D2002805D009E0166D36683A
:1005D0009B1B834204D30D70106D0460012070BD1D
:1005E000002070BDF8B58448007800284AD1844EB8
:1005F000307801282FD10121002001F0FDFC0121DC
:10060000042001F0F9FC00247E4FFF25F53541223E
:100610003946012001F06DFE41223946022001F0E9
:1006200068FE284601F0EFF900226421012001F064
:1006300060FE00226421022001F05BFE284601F0EA
:10064000E2F9FFF784FE641CE4B2052CDFD300F06E
:1006500003FD00F01CFC307800256B4F02280ED102
:10066000614C607D05280ED00121002001F0C4FC02
:100670000121042001F0C0FC607D401C60753078D1
:10068000032835D055E00121002001F0B5FCA07D04
:10069000052802D0401CA075F1E76575A575E07DC1
:1006A000042802D0401CE075E9E73570E57501F0DB
:1006B000D7FC5F223946012001F01BFE5F2239463C
:1006C000022001F016FEFF20F53001F09CF9002217
:1006D0006421012001F00DFE00226421022001F0BE
:1006E00008FE4A4901200870112000F0ECFFC6E71F
:1006F00001F0B6FC3570112000F0E5FF5F223946AD
:10070000012001F0F6FD5F223946022001F0F1FDE3
:10071000FF20F53001F077F900226421012001F07B
:10072000E8FD00226421022001F0E3FD37490120A9
:1007300008703221032001F035FFF8BD70B52E4856
:100740000078002820D13148007801281CD10920E8
:100750000121C00601F0D7FF01250022224C00280C
:1007600004D02276607E012809D00DE0207E032887
:1007700002D0401C207607E06576227604E0A07E59
:10078000022806D0401CA0761421042001F00AFFA4
:1007900070BD6276A276FFF735FEE2740022642116
:1007A000012001F0A6FD00226421022001F0A1FD3C
:1007B000207D01280BD002282AD00328E4D12575FA
:1007C0000121002001F018FC0121084630E0022040
:1007D00020750121002001F00FFC0121084601F0E5
:1007E0000BFC0121022023E014000020C4000020A3
:1007F0001C030020F00100208A000020AC00002033
:100800008D00002010270000204E00008E000020E8
:10081000032020750121002001F0EEFB0121084694
:1008200001F0EAFB0121022001F0E6FB0121032097
:1008300001F0E2FBA8E7F3B581B00198F64C0E4653
:10084000012804D0022813D0032822D12CE0F2483A
:10085000001D60651E30A065801DE065801D20665E
:1008600027386066C01CA066C01CE066C01C0FE094
:10087000E948401D60651F30A065801DE065801D52
:10088000206628386066C01CA066C01CE066C01CDC
:100890002067E248012700780025002815D0626D06
:1008A0001078012826D041E0DB48801D60652030AB
:1008B000A065801DE065801D206629386066C01C2B
:1008C000A066C01CE066C01CE2E7D54800220770A5
:1008D000E574606D64210770A06D0580E06D058092
:1008E000206E0580606E0570A06E0570019801F0A5
:1008F00000FDFEBDA06E31780078491E88420CDDF7
:10090000C0008019C1780022019801F0F2FC616DED
:1009100005200870A06E057008E002201070206F9E
:1009200032220570BF49019801F0E3FC606D007848
:10093000022832D1A06E7D210078C900C000801944
:10094000407948430199FFF710FE00280FD0606EF0
:100950000178491C0170A06D0580616D032008704D
:10096000A06E0078C0008019C178002223E0A16D3C
:100970000888401C0880216F087800280DD1E06E9F
:100980000278042A0FD0521CD1B2017048000A1814
:10099000A4493232019801F0ACFC606D84460078C5
:1009A00003280AD02DE005700F70A06E0078C000FB
:1009B00080190279C1780198EDE7A06E616E007828
:1009C0000A78C000801983799A4204D104206246D3
:1009D00010700D7015E0C0797D21C9004843019960
:1009E000FFF7C3FD00280CD0A06E0078C00080196E
:1009F0000279C178019801F07CFC616D02200870D9
:100A0000FEBD606D00780428FAD1A06E7D210078CB
:100A1000C900C0008019007A48430199FFF7A5FD7D
:100A20000028EDD00620E074606E00220570A06EF4
:100A30000078C0008019C178019801F05AFCA16EBD
:100A40000878401C0870606D0770FEBD10B500226C
:100A5000754BFF21B5319C5C8454521C8A42FADBF1
:100A600001466D22714800F00CFC10BD0178002297
:100A7000F92920D80021521C92B283189B78521C6D
:100A800092B2012B17D883189B78521C92B2002B7C
:100A900011D083189B785B1F602B0CD2521C92B232
:100AA00083189B78521C92B2002B04D083189B7839
:100AB0005B1EFA2B00D3C9E7D21C491C92B236291F
:100AC000D9DB7047F0B5002501232C46E6007218EB
:100AD0005278012A0BD10022B718CF5DC7545B1C96
:100AE000521CD2B2DBB2082AF6D36D1CEDB2641CE4
:100AF000062CEBDB0570F0BD70B50024464D4C4E66
:100B000001E00A2C0AD0304600F0E0FC81B2E98610
:100B1000641C0A39E4B2BF29F3D270BD3C20E886D8
:100B200070BDF0B53E48EFB00078002873D1414861
:100B300000780128FAD1384C3F4FE07C012600258F
:100B4000002804D0052818D0012845D0A5E06D2044
:100B50008100009001A804F0B9F801A93348009A77
:100B600000F0B6FCFF22B53201A93348FFF7FAFACC
:100B70003148FFF77BFF0520E07431212F4804F056
:100B8000A5F82E483121313004F09EF82B48312150
:100B9000623004F099F8207D012804D0022806D0A4
:100BA00003280AD132E09022B91C684603E02249AA
:100BB00090229231684604F021F869461F48FFF7F9
:100BC00081FF1E480CA93130FFF77CFF1B4818A994
:100BD0006230FFF777FFE6741948007800281AD0D2
:100BE000A08E0A214843174988422DD10C48A5867A
:100BF0000670E5740121002001F0FEF9192000F0D3
:100C000062FD00F029FA00F042F946E00B4990221B
:100C100092396846CFE7C0E0140000208B00002026
:100C20008A00002010270000B04E0008007800085D
:100C3000006800088E000020B80300206C0500202A
:100C40009000002060EA0000387800F0ABFAA16B59
:100C5000884203D3A08E401CA0861EE0A586A0205B
:100C600000F0A0FAA16B884202D20420E07451E0A7
:100C7000387800F097FAA16B88420ED8A02000F0D7
:100C800091FAA16B884208D3172000F01CFD0320C5
:100C9000E074A586E670256402E0E07C032814D1A8
:100CA0004948007800280ED078787D21C900484353
:100CB0000621FFF75AFC002807D00620E0742671B1
:100CC0006671A6710AE0258467E0E07C062814D1ED
:100CD0002079052802D16079052812D0A02000F0E3
:100CE00061FAA16B8842C0D338490120FFF7A3FD08
:100CF000364902203131FFF79EFDE07C042809D0FF
:100D000044E0A572E57225730720E074122000F01C
:100D1000DAFCF2E7162000F0D6FC0121002001F0F9
:100D20006BF90121042001F067F900274B222849C3
:100D3000012001F0DEFA4B222549022001F0D9FA08
:100D4000FF20F53000F05FFE00226421012001F059
:100D5000D0FA00226421022001F0CBFAFF20F53006
:100D600000F051FEFFF7F3FA7F1CFFB2052FDDD331
:100D700000226421012001F0BCFA0022642102203B
:100D800001F0B7FA00F068F900F081F8E07C07287C
:100D900003D1E57426716671A671FFF7D8FA0A21AE
:100DA000052001F0FFFB6FB0F0BD10B509480078D9
:100DB000002804D1084800F0EAFEFFF755FB642143
:100DC000072001F0EFFB10BD8B0000206C05002018
:100DD000102700008A0000201C03002030B52320CB
:100DE00085B00121400401F069FE0121480401F0B1
:100DF00077FE0121084601F06AFE102500246846AE
:100E000000950471C4710221417109206946C00630
:100E100001F02BFC0421002003F07EFA68460295C5
:100E200004730C2141730124847302A803F0ECF9CC
:100E30000721684601744474847404A801F0A2FE7A
:100E400005B030BD10B50924E4061021204601F09C
:100E50005AFC002801D0002010BD0A2000F003FE3B
:100E60001021204601F04FFC0028EED1012010BDDA
:100E700010B5102003F012FA002804D0AF48022168
:100E8000817000214171102003F005FA10BD10B5EA
:100E9000AB490420FFF74AFAAA490020086000F095
:100EA000B9FD01F097FBFFF7A3F9FFF757FA10BD63
:100EB000F0B527209BB00121400401F0FFFD032580
:100EC000684602954573002404730127C77302A97D
:100ED0009D4801F0CAFB022618A818960571C47136
:100EE00001460920C00601F0C0FB0021974802F02E
:100EF000A2FD0021964803F040F90021944803F038
:100F000090F80C200490684645750475C675092054
:100F100004A9C00601F0A9FB8C480021503002F062
:100F20008AFD8A4800213C3002F085FD0021894875
:100F300001F0F3FE6846069745770477C4770920E9
:100F400006A9C00601F091FB2020089008A8457171
:100F50000471C67101460920C00601F086FB4020DD
:100F60000A9008A845730473C67309200AA9C0062D
:100F700001F07BFB08A80C9645750475C6750CA995
:100F8000754801F072FB68020E9008A84577047757
:100F9000C47709200EA9C00601F067FB07200002F4
:100FA00000906846457107718471C77169466A4847
:100FB00001F05BFB07210902674801F0B6FBB002B4
:100FC000109010A845710471C4710146624801F087
:100FD0004CFB6248129010A845730473C673092035
:100FE00012A9C00601F041FB3003149010A845750A
:100FF0000475C67514A95A4801F037FB5948169074
:1010000010A845770477C67716A9534801F02DFB41
:101010001BB0F0BD54490020544A08801070544A57
:1010200046491070534A1070534A08711070534A61
:101030001060534A1060534A107048704871012282
:101040008A70514BC8701870504B1870504B187004
:101050000A7050490870704710B5FFF7DBFFFFF7C3
:10106000D1F9FFF7BBFEFFF723FF0121080701F0CD
:1010700037FD0121084602F04FFD10BD46484749A3
:101080000088884201D2012070474449FF2249422A
:1010900041181232914201D20220704740498842E1
:1010A00001D3032070470020704770B5234CA0780F
:1010B000002806D1132000F006FBFFF7CDFFFFF755
:1010C000E6FEA078012502282BD109201021C006B8
:1010D00001F019FB0021002804D06171607800281C
:1010E0001BD01EE06079022802D0401C607118E01D
:1010F00061716078002808D00020264A60700028BE
:1011000005D021700320A07003E00120F5E72570D1
:10111000A1701170FFF776F903E0FFF79DFFFFF76D
:10112000B6FEA078032803D1FFF7A8FFE070A570F2
:101130001421012001F036FA70BD00008A00002061
:10114000E2040000AC000020001400480800024047
:101150000024014000440040000400488099000041
:1011600000080048FDF00000480000202C0000208E
:101170002D0000202E00002091000020940000206F
:101180004C00002090000020290000202A000020B0
:101190002B00002027000020A0000020CC0C000025
:1011A000DD0D0000010900070A22000F5143081855
:1011B000164910B54843114603F08AFD14494968A1
:1011C000401810BD10B5124C6078002802D00228DB
:1011D00004D010E000F074FE0220607000F08CFE7D
:1011E000012808D1207800280AD000F09AFE094989
:1011F0000860002060700A21022001F0D3F910BDC0
:1012000000F08FFE606001202070F4E7B12B000039
:10121000900000204C00002000B5CBB0FF226946B2
:101220000A7008224A7000228A700322CA7008716C
:10123000020A4A71020C8A71000EC8716846FFF7F3
:1012400002F969464A78FC48921C00F041FC4BB018
:1012500000BDF8B5FF270546B5373946F74803F016
:1012600033FDF74E0020F54C30803946204603F020
:101270002BFD2879207068796070217808183080FB
:10128000F8BDF8B516460F460024054602F092FC5C
:10129000352002F098FE284602F0BDFCFF2E12D940
:1012A00013E0A000395CC0194278120289188278D4
:1012B000C0781204000610180918284602F0DDFC58
:1012C000641CA4B22D1DB442EBD302F07CFC20467A
:1012D000F8BDF0B5FF268336D84DD94C8DB0112915
:1012E00036D0122949D013295FD0212975D022295F
:1012F0006FD023296ED031296DD032296CD033299B
:1013000024D1071DA8190C903021684603F0DEFC9B
:1013100000206A46397811542388401CC9187F1C64
:1013200021803028F6DB302269460C9803F066FCF9
:101330002088A919020A20310A7448746D22BF4915
:10134000C048FFF79EFFC049012008700DB0F0BDF6
:10135000061D30216846AD1C03F0B8FC002168462C
:10136000327842542388491CD218761C22803029B6
:10137000F6DB01463022284614E0B04E051D323619
:101380003021684603F0A2FC002168462A784254C6
:101390002388491CD2186D1C22803029F6DB3022AC
:1013A000014666E003F02AFCD0E7A44E051D623634
:1013B0003021684603F08AFC002168462A784254AE
:1013C0002388491CD2186D1C22803029F6DBE6E701
:1013D00003E015E027E039E04DE0984E051D923618
:1013E0003021684603F072FC002168462A78425496
:1013F0002388491CD2186D1C22803029F6DBCEE7E9
:101400008E4E051DC2363021684603F05FFC002178
:1014100068462A7842542388491CD2186D1C2280C1
:101420003029F6DBBBE7854E051DF23630216846D4
:1014300003F04CFC002168462A7842542388491C5A
:10144000D2186D1C22803029F6DBA8E7051D7F4EDF
:101450003021684603F03AFC00216A46287850544F
:101460002388491CC0186D1C20803029F6DB3022EF
:101470006946304696E7754E051D30363021684680
:1014800003F024FC002168462A7842542388491C32
:10149000D2186D1C22803029F6DB80E77CB5FF2155
:1014A0006846017005214170002484700821664D52
:1014B000C17029780171FEF7C6FF68464278694617
:1014C0005D48921C00F004FB2C707CBD00687047E6
:1014D00030B50023002907D004E09D0010C85B1C34
:1014E0004C519BB29342F8D330BD30B5FFB06D2460
:1014F000BAB0A50029464BA803F0E8FB22464BA949
:101500005048FFF7E5FF2A464BA94C4803F076FB0D
:101510004A48FFF7ABFAFF2069460870F62048708A
:10152000002088700920C870444802780A71427807
:101530004A7102216A46801C03785418401C491CD9
:101540002371F229F8DB1046FEF77DFF68464278EA
:1015500069463948921C00F0BBFA7FB03AB030BD02
:1015600030B5CBB0FF2168460170C4214170002125
:1015700081700A21C1703549F2203039FF236A4653
:10158000B33314180D78FF3C013C401C491CA57472
:101590009842F6DB1046FEF756FF684642786946E9
:1015A0002548921C00F094FA4BB030BD007870478B
:1015B000884201D9401A00E0081A80B27047F7B596
:1015C0006946C8884E880A790D78801B511B00D562
:1015D0004942002800DA404203F084FB84B26946A5
:1015E0004889097A801B491B00D54942002800DA46
:1015F000404203F077FB80B220184008FEBDF8B5EA
:1016000016460F460546002402F0D4FA352002F0B3
:10161000DAFC284602F0FFFA07E0A0003958284615
:1016200002F02BFB641CA4B22D1DB442F5D302F0D2
:10163000CAFA2046F8BD0000AC030020F7060020DF
:101640008800002000780008980000201908002079
:10165000FEB50020E24C0090019002900322694602
:101660002046FFF735FF2514A6142946FF22DD4842
:1016700003F005FB05E03246DA492046FFF7BFFFDD
:1016800064190198A042F6D2FEBD70B5D44DD64C77
:101690002868A04216D002F08DFA352002F093FCA3
:1016A000284602F0B8FA2146284602F0E6FA21461A
:1016B000281D02F0E2FACA480021083002F0DDFAE3
:1016C00002F081FA70BDF0B585B0074600200290A7
:1016D00003900490032202A9C148FFF7F9FEC34812
:1016E000039C844240D28614B5002946FF22BD489F
:1016F00003F0C5FA3246BB492046FFF7E9FE01A9CF
:10170000684600F08FFE6846C0780004C11968463C
:10171000407800060818049909064A0DB149885016
:10172000684683788079511800061B18684640790E
:1017300007046846007900023818181848600498B1
:10174000401C04900006000E04D1A74802900398A4
:1017500040190390032202A9A148FFF750FF324627
:10176000A0492046FFF74BFF05B0F0BD0EB50020A5
:10177000009001900290032269469948FFF7A8FE65
:1017800002980EBD1CB5FF2269460A7005224A70F8
:1017900000228A706622CA7008716846FEF753FEFE
:1017A00069464A789248921C00F092F91CBD0EB529
:1017B000FF20694608700820487000208870692062
:1017C000C870FFF7D3FF020E69460A71020C4A7116
:1017D000020A8A71C8716846FEF735FE69464A7882
:1017E0008348921C00F074F90EBD10B5092103F076
:1017F0006FFA002901D0401C80B210BD30B5BFB0D7
:101800000546FF2368460370AB1E437000248470B6
:101810007123C370130A0371427106206A4605E002
:101820000B781354641C401CA4B2491C53785B1EF3
:101830008342F5DA1046FEF706FE684642786946AE
:101840006B48921C00F044F92946684603F03EFAC2
:1018500020463FB030BDF0B585B00446FFF786FFA7
:10186000C117090E09180A02090A0902401A150CC3
:1018700080B21E2103F02CFA0090E80028180E46D2
:1018800001210F25C902ED010190A04223D3554E3D
:10189000FF22304603F0F3F92046FFF7A6FFC1020E
:1018A0004F480122081852023146FFF711FE092164
:1018B000204603F00DFA002909D02046FFF795FFD6
:1018C000C1004018201AF0214843801921E0711905
:1018D000224688202DE0434FFF22384603F0CFF9FF
:1018E0002046FFF782FFC1023D480122081852023C
:1018F0003946FFF7EDFD009901984018A0422046B7
:101900000AD3FFF772FFC1004018201AF0214843A4
:10191000C0194119F8200BE0FFF767FFC10040181C
:10192000201AF0214843C0194119F0000830C0B214
:101930002246FFF763FF17E7002804D001794079BA
:101940000902081880B2704710B5C17822291ED04C
:1019500014DC11291BD00ADC042926D0052927D044
:10196000062928D0072901D1FFF798FD10BD1229BB
:101970000DD013290BD02129F8D108E0332906D046
:1019800008DC232903D0312901D03229EED1FFF719
:10199000A0FC10BD652911D068291ED07029F8D18E
:1019A000FFF7CAFFFFF757FF10BDFFF752FC10BD4E
:1019B000FFF79BFD10BDFFF7D3FD10BD00F067FDE5
:1019C000002807D0FFF744FEFFF75FFE2020FFF757
:1019D0007AFE0120FFF7D6FE10BDFFF7E8FE10BD2E
:1019E00000880008AC0800200090000800000208F1
:1019F000AC030020064908800028FDD1704710B5CF
:101A000000F01AF810BD10B500B200F02CF810BDAF
:101A10009A00002010B50420C04301F0DFF81E48F2
:101A20001C49006803F054F91C4940B27D2208703B
:101A3000D2005043488010BD184900228A561849E8
:101A40005043486100228A610869012318430861F4
:101A50000869C30701D0C003FAD5086940084000EF
:101A600008618A6170470D4902228A5E0C49504321
:101A7000486100228A6108690123184308610869E6
:101A8000C30701D0C003FAD50869400840000861C7
:101A90008A61704700127A00000000209C0000203C
:101AA00000E000E0816000218180C28041800180EF
:101AB0007047002181804180018070478188C08803
:101AC000814201D301207047002070478088704711
:101AD000F0B5C4888388A41AA34201DD0020F0BDBC
:101AE00000231D460DE00488C688B44200D305805B
:101AF00007888668CC5CF4550488641C5B1C0480F1
:101B00009BB29342EFD38188891881800120F0BD78
:101B100070B58388934200D81A4600231D460DE015
:101B20004488C688B44200D3458046888468A45D52
:101B3000CC544488641C5B1C44809BB29342EFD31A
:101B40008188891A8180104670BD00224264026437
:101B50004021C26481647047026C8154016C491C4D
:101B60000164402901D1002101647047416C425C4D
:101B7000491C4164402901D100214164104670474D
:101B8000426C016C881A914200DA4030704770B59F
:101B9000044600F0A8F8A16C814201DB0D1A01E0B7
:101BA0000D1A40350023A0640EE0C118402903DB64
:101BB00001191846103002E0011918465030095C2E
:101BC0002046FFF7C9FF5B1CE06CAB42EDDB401920
:101BD000E064402801DB4038E06470BDF3B50121CA
:101BE0004C0493B0204600F069FF0121084600F044
:101BF00065FF0121204600F073FF0926F606012249
:101C00000321304600F09DFD01220221304600F004
:101C100098FD0C2502206946009508710320487143
:101C200000248C710120C871304600F01EFDE120B7
:101C30004002304F12940D900E940F9410940DA901
:101C40001195384600F0F7FF2B4801F099FE29481E
:101C500080252830029010200994460203940594B0
:101C600006940795049008940A9402A90B960C9484
:101C7000214801F0B7FE2048143001F081FE1D48D4
:101C800005A924300290139803901498049431C14C
:101C900020200A9018480894099402A90B960C94E5
:101CA000143001F09FFE0122C021384601F072F984
:101CB00011480121143001F0BEFE01210E4801F04F
:101CC000BAFE0121384601F028F815B0F0BD0A4AE5
:101CD00013685B085B001360D060516010680121DD
:101CE000084310607047044810B5143001F0AFFE8F
:101CF00010BD000000440040440002401CB501211A
:101D0000480400F0DBFE03204002009001206946F9
:101D1000087188710022CA7148710920C00600F05C
:101D2000A4FC1CBD1CB50120800200900120694666
:101D3000087188710020C871032048710920C0060D
:101D400000F093FC1CBD1CB5012080020090002017
:101D50006946087101228A71C871032048710920FF
:101D6000C00600F082FC1CBD70B5FFF7DBFF01254B
:101D7000AD020920C00685616C1084610520FFF763
:101D80003EFE794E35810520FFF739FE348170BD66
:101D900070B501247448A402048160100925ED0681
:101DA000A8610520FFF72BFEAC610520FFF727FE99
:101DB00070BD70B5FFF7B6FF01206B4C800220812B
:101DC00045100920C00685610520FFF718FE258112
:101DD0000520FFF714FE70BD10B5FFF7A3FF01212A
:101DE00089020920C00681614C1084610520FFF73B
:101DF00006FE5D4804810520FFF701FE10BD70B5A9
:101E00000120002580020924E406A0610520FFF7D7
:101E1000F6FD01267602A6610520FFF7F0FDFFF72B
:101E200092FF1420FFF7EBFD208AFFF77BFF0520D0
:101E3000FFF7E5FD4C4806811920FFF7E0FD284635
:101E400070BDF8B509270024FF0601260546760275
:101E50002806464801D5B86101E043490881680673
:101E6000050E0520FFF7CBFDBE610520FFF7C7FD7E
:101E70003D4806810520FFF7C2FD641CE4B2082C32
:101E8000E6D3F8BDF8B50024FFF75DFF0126002575
:101E900076020927FF06BE610520FFF7B0FD600648
:101EA000398A000E4905CC0F04432F4806810520CE
:101EB000FFF7A5FD6D1CEDB2082DECD32046F8BD53
:101EC00010B5FFF71BFFFFF74FFF3020FFF7B9FFFB
:101ED000FFF795FFAA20FFF7B4FFFFF790FF002060
:101EE000FFF7AFFFFFF78BFF0020FFF7AAFFFFF719
:101EF00086FFFFF74DFF10BD10B5FFF735FF31200E
:101F0000FFF79FFFFFF77BFFFFF7BCFF0446FFF7DC
:101F100063FFFFF73DFF402C01D0002010BD0120E2
:101F200010BD70B5FFF720FF3120FFF78AFFFFF7E4
:101F300066FFFFF7A7FFFFF73CFFFFF7A3FF04468D
:101F4000FFF737FFFFF79EFF0546FFF732FFFFF76A
:101F500099FF0646FFF740FFFFF71AFF200429020A
:101F60004018801970BD00002000004800040000E7
:101F70001FB50121480400F0AAFD15216846017330
:101F8000002444730121817303A800F0FBFDBC48C9
:101F90007D21C900006802F09BFE401E019068464A
:101FA0000480048144808472B64C6946204601F066
:101FB000A5F80121204601F01EFC01221146204611
:101FC00001F008FC0121204601F009F91FBD1CB5F4
:101FD0002020009001206946087100208871C87196
:101FE000032009244871E406204600F03EFB20212E
:101FF000204600F09CFB1CBDF8B5FF2701370246C8
:102000007C00A1486500A600130002F044FF05040F
:10201000171D2125160000290FD03946074600F06C
:1020200084FB2146384600F080FB2946384600F004
:102030007CFB3146384600F07AFBF8BD0029394672
:10204000F9D100F072FBF8BD00292146F3D1F8E781
:1020500000292946F5D0EEE700293146F1D1EAE71B
:1020600010B58A480078012814D0022819D0032816
:102070000FD101210020FFF7BFFF01210846FFF724
:10208000BBFF01210220FFF7B7FF01210320FFF76B
:10209000B3FF10BD01210020FFF7AEFF012108466C
:1020A000F5E701210020FFF7A7FF01210846FFF710
:1020B000A3FF01210220EAE7FEB50125ED0201267A
:1020C00068460095067100248471C4710327477126
:1020D00069466D4800F0C9FA29466B4800F027FBB5
:1020E000E8100090684606718471C47147716946B2
:1020F000654800F0BAFAA81000906946624800F0FE
:10210000B4FA6810009069465F4800F0AEFAFEBD70
:102110001CB52020009001206946087100208871BC
:10212000C871032009244871E406204600F09DFA96
:102130002021204600F0FBFA1CBD1CB50121002225
:10214000684600910271C1710321417109206946FD
:10215000C00600F08AFA1CBDF0B5012193B0480416
:1021600000F0ACFC022006900321684601770024B1
:10217000C477092006A9C00600F077FA01214802B9
:1021800000F0A5FC0121084600F098FC404D2846CF
:1021900001F01EFF3F4F384601F0F2FB3C4801269C
:1021A000403008903C4809A951C180200D90400062
:1021B0000E9080000F90202010900C94000211903F
:1021C00008A91294384601F00DFC0121384601F0AF
:1021D00032FC0221284601F0DAFF0121284601F0F5
:1021E000CCFF684601F015FF684600940671042094
:1021F0000590029469460494284601F0F7FE0722F0
:102200000221284601F072FF284601F092FF0121C9
:10221000284601F006FF214C2846214601F0C7FF61
:102220000028F9D0284601F0A0FF13B0F0BD10B58A
:1022300003200121400400F041FCFFF73DFFFFF7C0
:1022400067FFFFF789FFFFF778FFFFF71EFA10BD62
:102250000120704770470120704770470120704788
:1022600070471CB50121880400F028FC01200022E1
:10227000694600900A71C871034800F0F6F91CBD68
:102280000000002000440140000400482800002015
:102290000024014008000240A000002001000001CD
:1022A0007CB503200121400400F008FC02246946AB
:1022B0000C7100208871C871032048710925ED0652
:1022C00001220621284600F03CFA40200090694691
:1022D000284600F0CAF94D4D00220121284600F0A1
:1022E00030FA69462846009400F0BFF900F040F843
:1022F0007CBD70B516460546454A481E88B09042DA
:1023000031D8642E2FD8434802F0E2FC401E0690DC
:1023100041486946888200248C83CC8206986421D7
:10232000401C704302F0D4FC602269460A800122FE
:102330004A8004228A8002908C810820C881400152
:1023400008824C82012D10D0022D0CD1334C05A9EE
:10235000204600F0D3FE6946204600F070FF0821B9
:10236000204601F0B3F808B070BD05A92C4CEFE78A
:10237000F0B589B00121022000F0B2FB01210D026D
:10238000284600F0ADFB23482349401E06906846CE
:10239000818200248483224EC48205A9304600F045
:1023A000ADFE1E4F05A9384600F0A8FE6021684624
:1023B00001800121418004218180029484810821CF
:1023C000C181058244826946304600F038FF082109
:1023D000304601F07BF86946384600F030FF0821AE
:1023E000384601F073F80121304600F0DFFE01218C
:1023F000384600F0DBFE0121304600F0F0FE0121FE
:10240000384600F0ECFE09B0F0BD000000040048C2
:102410004FC3000080BB0000E70300000020004025
:102420000004004010B50446002002F0D3F8214615
:10243000002002F043F910BD0A2805D00B2805D072
:102440000C2800D1122070471020704711207047CF
:1024500010B50121080700F043FB012001F02DFB1E
:10246000012000F013FA212000F0B2F90028FAD080
:10247000FF20013000F008FB2C48FF2141607F2144
:102480000160012000F005FB01F08CFF10BD10B5CC
:10249000044688B0012001F010FBFFF7D9FF0020AF
:1024A000029022484168049100680390617968466F
:1024B000C175A1794175E1798175217A002900D131
:1024C00007210175617A0176A17A4176E17A8176F8
:1024D00002A801F0D3FF002810D006A9002002F0C6
:1024E0002CF805A9002002F09CF801A96846FFF726
:1024F00099FF6846C078002801D014E0FEE76846DE
:10250000407801280FD16846807801280BD16846B1
:102510000079002807D168464079002803D1684631
:102520008079002800D0012008B010BDA400002050
:102530002A4D2B4C0026666061680C2041434819E7
:102540004279012A09D1C3888268D21823689A4245
:1025500003D88660C680685880476068401C606009
:102560000A28E9D3E7E730B50C2314461B4D5C433A
:10257000631959711A7128510020D880986030BDB4
:10258000092805D80C225043144A012180184171B2
:102590007047092805D80C225043104A00218018A2
:1025A0004171704710B509280ED80D4A13680C22E6
:1025B00050430A4A84187D20C00048437D21C90049
:1025C000A36002F085FBE08010BD05480168491C4E
:1025D0000160704710B5FFF7CBFC10BDAC100020B8
:1025E000AC0000200748804707480047FEE7FEE7A9
:1025F000FEE7FEE7FEE7FEE704480549054A064B0D
:1026000070470000F1010008C10000088811002097
:10261000881700208813002088130020092110B596
:10262000C906884202D101214C0404E04D49884288
:1026300009D101210402204600F05BFA0021204666
:1026400000F057FA10BD4849884202D10121040226
:10265000F1E74649884202D101210C05EBE74449E4
:102660008842EFD101218C05E5E7F0B50022012475
:1026700023460D6893401D409D422AD10D79012DBE
:1026800001D0022D12D1876855000326AE40B74312
:1026900087604E79AE4085682E43866085889D436D
:1026A000858085888B7993401D4385800668550019
:1026B0000323AB409E4306600E790768AE403E435D
:1026C0000660C6689E43C660CB79AB40C5682B43A5
:1026D000C360521C102ACBD3F0BD264901600021F3
:1026E0000171022242718171C1717047012208B5E6
:1026F00012040A430092C261C1610099C161C169BB
:10270000C069009008BD0246128A00200A4200D02B
:1027100001207047008A70470246928A00200A42D0
:1027200000D001207047808A704781617047018521
:102730007047002A01D0816170470185704781820E
:1027400070474B07DB0E9A40C90810B5890008187E
:10275000016A0F249C40A1430162016A1143016296
:1027600010BD00000004004800080048000C0048AC
:1027700000140048FFFF0000F748016801221143E0
:1027800001604168F54A114041600168F44A114016
:1027900001600168012292049143016041683F2277
:1027A000120491434160C16A09090901C162016BC8
:1027B000FF22543291430163416B49084900416350
:1027C000002181607047E44900228A708870704758
:1027D00003460020E0495A090CD0012A0CD0022AF5
:1027E0000CD0496BDA06D20E012393400B4200D085
:1027F000012070470968F5E7096AF3E7496AF1E7DC
:1028000018B500200524240200901120FFF7E0FFF6
:102810000099491C0091A14201D00028F5D0112057
:10282000FFF7D6FF002800D0012018BDCA4A116862
:10283000F8239943C000084310607047C649002838
:10284000086802D00122104301E0400840000860FF
:102850007047C14A516BF8239943C0000843506345
:102860007047BD490028486B02D00122104301E0A7
:102870004008400048637047B74904220028486B6D
:1028800001D0904300E0104348637047B2490A6AA0
:10289000520852000A620A6A04239A430A620A6AC8
:1028A00002430A627047AC490A6A18239A430A62D3
:1028B0000A6A02430A627047A7490028486A02D0A0
:1028C0000122104301E0400840004862704710B503
:1028D000A14A53683D242404A3435360536808432A
:1028E0000343536010BD01229B491206002808686B
:1028F00001D0104300E0904308607047964AD16AC7
:10290000090909010143D162704701229249D204A9
:102910000028086801D0104300E090430860704729
:102920008D49C87170478C4A5168890889000143F4
:1029300051607047884840680C2108407047864ABB
:102940005168F0239943014351607047824A5168AE
:1029500007231B0299430143516070477E494A682F
:1029600001239B039A434A604A6883B21A434A6030
:102970000A6B8B159A430A630A6B000C02430A63C5
:10298000704775490A6B40239A430A630A6B0243F6
:102990000A63704770490A6B10239A430A630A6BF3
:1029A00002430A6370476C490A6B920892000A63FB
:1029B0000A6B02430A637047F8B5674D04466868BE
:1029C0000C21684E084003D0042801D0082801D00B
:1029D000266012E0696868680122890212040F0FFC
:1029E0001040BF1C00281CD0E86A0107090F3046C0
:1029F000491C02F06DF97843206068685A4B000664
:102A0000000F1A5C20680146D14061606A68520577
:102A1000520F9A5CD140A1602A6BD20505D4534A6B
:102A200009E0534847432760E7E76A68520401D446
:102A30004A0800E08A08E2602A6B53064D4A03D434
:102A40004C4B1233236100E022612B6BDB0601D477
:102A5000666100E060612B6B9B070FD0296B8907D3
:102A6000890F01290CD0286B8007800F022809D01C
:102A7000286BC043800700D1A661F8BDA161F8BDF5
:102A8000A061F8BDA261F8BD33490A6A02430A6237
:102A9000704731490028374A086A01D0104300E0E6
:102AA00090430862704701222B4912040028086AEB
:102AB00001D0104300E0904308627047264A002985
:102AC000516901D0014300E0814351617047224ABE
:102AD0000029916901D0014300E081439161704771
:102AE0001D4A0029D16901D0014300E08143D16131
:102AF0007047194A0029916A01D0014300E08143DF
:102B000091627047144A0029D16801D0014300E066
:102B10008143D1607047104A0029116901D00143F7
:102B200000E08143116170470B4A0029517A01D0BE
:102B3000014300E08143517270470748416A012216
:102B40001206114341627047034A01469268002011
:102B50000A4200D001207047001002400CB8FFF874
:102B6000FFFFF6FE00127A00B4000020809FD5001F
:102B700000093D000080000001498872EBE7000079
:102B80000010024030B5837801210278002B15D067
:102B90009408174BA400E41823689207D50EFF226F
:102BA000AA40934342789207120EAA401A43226029
:102BB0000078C006C00E81400E4804E0D006C00E6A
:102BC00081400C488030016030BD0B4A00291169FA
:102BD00001D0014300E0814311617047042207499D
:102BE0000428086902D09043086170471043FBE74E
:102BF00000E400E000E100E000ED00E000E000E0C3
:102C0000F74910B5884209D101218C032046FFF70E
:102C100079FF00212046FFF775FF10BDF14988427A
:102C2000FBD101214C042046FFF775FF002120460F
:102C3000FFF771FF10BD70B50446006888B00D46FF
:102C40004008400020606168032000038143A868B9
:102C5000084360602168E448EA68014068681043FE
:102C60002A690A4310432060A068032109028843AF
:102C700069690143A1606846FFF79EFED848844217
:102C800001D1069800E0029821680904296801D55D
:102C9000490000E089001922504302F019F8054666
:102CA000642102F015F806013009642148432168C7
:102CB000281A090407D5C0006421323002F008F850
:102CC0004007400F06E000016421323002F000F8B6
:102CD0000007000F3043A08108B070BD4B21C9012F
:102CE00001600021416081600C22C160026141618C
:102CF000704710B542680F231B029A4318C923433B
:102D00000C6849680C4323431343436010BD002102
:102D1000016041608160C16070470029016802D094
:102D20000122114301E04908490001607047002A6F
:102D3000026801D00A4300E08A4302607047012222
:102D4000D2030029016801D0114300E091430160E2
:102D500070470122D2020029816801D0114300E0AE
:102D60009143816070470122D2040029416801D05B
:102D7000114300E091434160704701229204002911
:102D8000416801D0114300E0914341607047002A3F
:102D9000426801D00A4300E08A4342607047012242
:102DA000D2030029416801D0114300E09143416002
:102DB00070470122D2050029416801D0114300E08B
:102DC0009143416070474269120E120642614269A6
:102DD0000A4342617047028A120A12020282028A80
:102DE0000A430282704702220029016801D0114380
:102DF00000E0914301607047826803231B059A43FA
:102E0000826082680A4382607047012212050029AD
:102E1000416801D0114300E091434160704742682E
:102E200003235B059A43426042680A43426070474D
:102E3000C1690122D2039143C1617047C905C90D1F
:102E400001857047808CC005C00D70474268120232
:102E5000120A4260426809060A4342607047012232
:102E600052030029016801D0114300E09143016041
:102E7000704702680123DB029A43026002680A433A
:102E800002607047426810239A43426042680A43D6
:102E900042607047426820239A43426042680A4376
:102EA00042607047012292030029416801D011431A
:102EB00000E091434160704708220029816801D0F9
:102EC000114300E0914381607047028AD2B20282CE
:102ED000028A09020A43028270472022002981687F
:102EE00001D0114300E09143816070471022002916
:102EF000816801D0114300E091438160704782688E
:102F000007235B049A438260826849040A43826013
:102F1000704742691202120A4261426909060A4375
:102F200042617047826804239A43826082680A4340
:102F30008260704702220029816801D0114300E0BD
:102F4000914381607047012292030029816801D07A
:102F5000114300E091438160704782680123DB03E5
:102F60009A43826082680A438260704702681F2326
:102F70005B059A430260026849050A430260704794
:102F800002681F231B049A430260026809040A4373
:102F900002607047002A826801D00A4300E08A4339
:102FA00082607047826801235B039A438260826873
:102FB0000A438260704710B50B041C0E01238B403E
:102FC000022C02D0032C02D002E0001D00E00830E9
:102FD0000168002A01D0194300E09943016010BD47
:102FE0000038014000440040F3E9FFFF002A028B53
:102FF00001D00A4300E08A430283704782680123BC
:103000001B039A43826082680A43826070470246CB
:10301000D26900200A4200D0012070470162704747
:1030200030B50A04130E0122144600258C40012BF2
:103030000ED0022B0ED08368090C2340C0698A4051
:103040001040002B02D0002800D00125284630BDBA
:103050000368F1E74368EFE70A0C01219140016240
:1030600070470000F84910B5884202D10121C4140C
:1030700030E001218907884206D101210846FFF787
:103080004AFD0021012008E0F049884208D10121D1
:103090000220FFF740FD00210220FFF73CFD10BD9C
:1030A000EB49884206D101211020FFF734FD0021B1
:1030B0001020F2E7E749884207D184150121204614
:1030C000FFF729FD00212046E7E7E349884209D1BF
:1030D00001210C042046FFF715FD00212046FFF7D3
:1030E00011FD10BDDD49884202D101214C04F1E7F8
:1030F000DB498842F5D101218C04EBE710B5028849
:10310000D14B984206D00124A407A04202D0CF4C54
:10311000A04203D17024A2434C882243CC4CA0424D
:1031200003D0D04C22400C89224302804A68C262FC
:103130000A880285984208D0C74A904205D0C74AFB
:10314000904202D0C64A904201D1897A018601217B
:10315000818210BD0021C9434160002101800181AD
:103160004180817270470185828270470288702396
:103170009A430A430280704741627047C1627047B8
:10318000406A7047008D704702220029018801D0F3
:10319000114300E091430180704704220029018817
:1031A00001D0114300E09143018070478022002943
:1031B000018801D0114300E09143018070470288EB
:1031C00008239A43028002880A43028070470288DB
:1031D000A44B1A40028002880A43028070470029EB
:1031E000018802D00122114301E049084900018011
:1031F000704710B50A884B88CC881A438B882343C4
:103200001A430B891A434B8989891A430A43403070
:10321000828010BD0021018041808180C1800181B8
:1032200041818181704740300029818803D001228B
:10323000D203114301E04904490C8180704730B545
:10324000028C520852000284038C8288048B702501
:10325000AC43A4080D88A40025430224A3438C8911
:103260001C434B882343784CA04208D07A4CA042A0
:1032700005D07A4CA04202D0794CA0420DD108244E
:10328000A343CC891C4304239C438B882343754C64
:1032900022400C8A14434A8A22438280058389682B
:1032A0004163038430BD70B5028C10239A430284BD
:1032B000048C8288038B6C4D2B400D782D062D0CD1
:1032C0001D4320239C438B891B051E0C4B882643E2
:1032D0001B051B0C5C4C3343A04215D18024A34337
:1032E000CC892405240C1C4340239C438B881B055C
:1032F0001B0C23435D4C22400C8AA404240C144371
:103300004A8A9204120C2243828005838968816371
:10331000038470BD30B5028C554B1A400284038C77
:103320008288848B7025AC43A4080D88A4002543B3
:10333000504C23400C7B2406240C1C438B781B062A
:103340001B0C2343404CA04215D14B4C23408C7B9B
:103350002406240C1C43494B1C400B791B061B0CF8
:103360002343474C22400C8A2405240C14434A8AE8
:103370001205120C2243828085838968C16303840D
:1033800030BD30B5028C3F4B1A400284048C8388D8
:10339000828B354D2A400D782D062D0C15433A4A67
:1033A00014400A7B1207120C22438C782407240C49
:1033B0001443254A904205D1344A13400A8A9205A3
:1033C000120C13438380858389680164048430BDB3
:1033D000002101804180818081608181C1810182E1
:1033E0004182704730B5034618330124058C8C4068
:1033F000A5430584002910D008290ED0091F080410
:10340000400CC018016807231B0399430160016841
:103410001206120C1143016030BD4808C018016843
:103420007023994301600168F4E741637047816349
:103430007047C163704701647047028B70239A43E1
:103440000A43028370470000002C01400004004042
:1034500000100040002000400040014000440140B6
:1034600000480140FFFC0000FF8C0000FFF300005B
:10347000FFFE0000FFFD0000FFF70000FFFB000063
:10348000FFCF0000FFEF0000FFDF0000FFBF0000E4
:10349000028BF64B09021A4011430183D2E7828B5B
:1034A00070239A430A438283CCE7828BEF4B090255
:1034B0001A4011438183C5E70029818802D0012287
:1034C000114301E0490849008180BBE7028B0823D2
:1034D0009A430A430283B5E7028BE54B09021A407F
:1034E00011430183AEE7828B08239A430A43828308
:1034F000A8E7828BDE4B09021A4011438183A1E7C2
:10350000028B04239A430A4302839BE7028BD94B25
:1035100009021A401143018394E7828B04239A43E2
:103520000A4382838EE7828BD24B09021A401143F1
:10353000818387E7028B80239A430A43028381E7D2
:10354000028B5204520C0902114301837AE7828BE9
:1035500080239A430A43828374E7828B5204520C7D
:103560000902114381836DE7028C02239A430A43C7
:10357000028467E7028C08239A430A43028461E7C6
:10358000028C20239A430901114301845AE7028CDB
:1035900080239A4309011143018453E7028CB64BFF
:1035A00009021A40114301844CE7028CB04B090216
:1035B0001A401143018445E7028CB04B09031A40BD
:1035C000114301843EE7028908239A43028102895C
:1035D0000A43028136E710B50123048C8B409C43DB
:1035E0000484038C8A401343038410BD10B5042364
:1035F000048C8B409C430484038C8A4013430384D3
:1036000010BD04220029818801D0114300E09143BC
:10361000818017E7828B9A4B1A408283828B090242
:103620000A4382830EE7828B0C239A438283828B28
:103630000A43828306E7028B914B1A400283028B76
:1036400009020A430283FDE6F0B5048C1026B44358
:103650000484058B048C8B4F1B0309013D402B43D5
:1036600012021A43A0239C430C4334430283048474
:10367000F0BD028B0C239A430283028B0A43028320
:10368000E0E670B5048C640864000484058B048C47
:103690001B011343F3260A22B54394432B430C43E7
:1036A00001210C430383048470BDF8B504460888E7
:1036B0004E888A880B890D4600281DD0042824D006
:1036C0000828208C2AD0704908402084A08B278CA1
:1036D00031036C4E120230400243180310436B4A10
:1036E000A08317400F43012109030F432784E98872
:1036F0002046FFF78FFFF8BD31462046FFF7C1FF98
:10370000E9882046FFF7B5FFF8BD31462046FFF7B0
:103710009BFFE9882046FFF78EFFF8BD5C49084013
:103720002084A18B208C3702F3261B01B143134365
:103730000B435849A3830840FF2138430131084314
:103740002084E9882046FFF76EFFF8BD0021018044
:10375000418001228280C180018173E6F8B50C4668
:103760004988002601250746002900D10226A288A3
:10377000012A00D10225208823890028384610D04C
:10378000FFF762FFE1883846FFF755FF23892A4695
:1037900031463846FFF775FFE1883846FFF769FF85
:1037A000F8BDFFF76EFFE1883846FFF762FF238917
:1037B0002A4631463846FFF747FFE1883846FFF78B
:1037C0003AFFF8BD406B3DE6806B3BE6C06B39E6E7
:1037D000006C37E6002A828901D00A4300E08A4360
:1037E00082812FE681822DE60246128A00200A425B
:1037F00000D0012026E6C943018223E60246138A4F
:10380000002092890B400A40002B02D0002A00D0F1
:10381000012017E6C943018214E6114340300181BB
:1038200010E6002A828901D00A4300E08A4382819F
:1038300008E608220029818801D0114300E0914365
:103840008180FFE50189C908C9000181FAE5028983
:1038500070239A430A430281F4E510B50446FFF74A
:10386000F6FF208907210843208110BDFF8F00004B
:10387000FFF70000FFFB0000FFFD0000FFDF00007E
:10388000FFF30000FF0C0000FFEF0000FF5F0000EF
:10389000FFFE0000FFF5000070B516460D46044619
:1038A00060290CD001223146FFF7EBFE2946204665
:1038B000FFF7CDFF208907210843208170BD012239
:1038C0003146FFF7C1FEF1E710B504891B0213432F
:1038D000E4B20B432343038110BD10B50446FFF748
:1038E000F3FF2089C108C9000720014370208143EC
:1038F0000143218110BD10B50446FFF7E5FF208983
:10390000012189030843208110BD828870239A43D6
:10391000828082880A43828094E50289D208D2009C
:10392000028102890A4302818CE5028980239A433D
:10393000028102890A43028184E570B50689048BFD
:10394000058CF608F6000E430C4906810C40FF2159
:1039500002310C43AA218D431901114329430483E9
:10396000018470BD80220029818801D0114300E0CC
:103970009143818066E54030018263E5FCFC0000F4
:103980000168454A11400160002101604160816089
:10399000C1604249414A0839904202D148680F2229
:1039A00005E03E4A1432904204D14868F0221043A8
:1039B00048607047394A2832904203D148680F2244
:1039C0001202F4E7354A3C32904203D148680F2294
:1039D0001203ECE7314A50329042EAD148680F2294
:1039E0001204E4E730B503682D4A0C6A13408A6874
:1039F0004D6922430C692C4322438C692243CC69D4
:103A000022434C6A22438C6A22431A430260CA68EA
:103A100042600A6882604968C16030BD002101606F
:103A200041608160C160016141618161C161016288
:103A30004162816270470029016802D0012211436E
:103A400001E0154A114001607047416070474068CD
:103A500080B27047002A026801D00A4300E08A431E
:103A60000260704701460D4A0020083A12680A4277
:103A700000D0012070470949083948607047014665
:103A8000064A0020083A12680A4200D00120704716
:103A90000249083948607047FEFF000008000240F4
:103AA0000F80FFFF10B501210C072046FFF733F808
:103AB00000212046FFF72FF810BD30498A15002855
:103AC000086801D0104300E09043086070472B4A1B
:103AD0001168E02399430143116070472749102280
:103AE0000028086801D0104300E090430860704748
:103AF000224A0029516801D0014300E0814351600E
:103B000070471F490A6904239A430A61012801D0BA
:103B100020BF704730BF7047184B1A689208920058
:103B200002431A6016480369042213430361012902
:103B300004D020BF016991430161704730BFF9E7AC
:103B40000E48026804210A430260026802231A43F5
:103B500002600B4802690A43026130BF7047074A9E
:103B60000146526800200A4200D0012070470349F4
:103B70000A68800002430A6070470000007000403D
:103B800000ED00E0FE4A1168490849000143116058
:103B90007047FB4910220028086801D0104300E05C
:103BA000904308607047F64900200968890600D5EF
:103BB00001207047F2480169090603D5F1494160C7
:103BC000F14941607047EE4801698022114301616B
:103BD0007047EB490420CA68D20701D00120704722
:103BE000CA68D20601D502207047C9684907FBD5CB
:103BF0000320704700B50346FFF7EBFF02E0FFF735
:103C0000E8FF5B1E012803D0002B00D1052000BD7A
:103C1000002BF4D1FAE7F0B50B2706463F043846EF
:103C2000FFF7E8FF04280FD1D54C2069022528436F
:103C30002061666120694021084320613846FFF712
:103C4000D9FF2169A9432161F0BD70B50B252D0471
:103C50002846FFF7CFFF04280ED1C94C206904265F
:103C60003043206120694021084320612846FFF746
:103C7000C1FF2169B143216170BDF8B5064600203E
:103C80000B273F0400900D463846FFF7B3FF04288A
:103C900015D1BB4C2069012108432061358038468D
:103CA000FFF7A8FF042806D1B61C280C0096308028
:103CB0003846FFF79FFF2169490849002161F8BD97
:103CC000F0B50B2706463F040D463846FFF792FF36
:103CD00004280CD1AA4C20690121084320613580B9
:103CE0003846FFF787FF2169490849002161F0BD87
:103CF000A3480169890503D4A2498160A249816072
:103D000070479F48016942159143016170479C4883
:103D10000169012252031143016170479849002053
:103D2000C9694907890F00D001207047F0B5AA255D
:103D3000FFF7F4FF002800D000250B273F0438468A
:103D4000FFF758FF042813D18D4C206920263043FB
:103D5000206120694021084320613846FFF74AFF6F
:103D60001021042805D0052802D022698A43226147
:103D7000F0BD2069B043206120690E4630432061C8
:103D8000824805803846FFF735FF0528F0D02169C5
:103D9000B1432161F0BDF0B5C043C6B20004050EC9
:103DA0000B200004FFF726FF04281BD1744C216967
:103DB000102211432161754FFF2E06D03E810B204A
:103DC0000004FFF717FF042806D1FF2D06D07D81E0
:103DD0000B200004FFF70EFF052803D022691021F5
:103DE0008A432261F0BDF0B50B2607463604304603
:103DF000FFF700FF04281ED1614C206920252843CD
:103E0000206120694021084320613046FFF7F2FE1F
:103E100004280BD12069A84320612069102528437C
:103E200020615A4807803046FFF7E4FE052802D09B
:103E30002169A9432161F0BDF0B505460B209446E8
:103E40000F460004FFF7D6FE042814D14C4C20691D
:103E50001026304320613D4360460543F82005436A
:103E60004A4845800B200004FFF7C4FE052802D015
:103E70002169B1432161F0BDF0B50B2705463F0430
:103E80003846FFF7B7FE042810D13D4C20691026B4
:103E900030432061EF2005433C4845803846FFF71A
:103EA000A9FE052802D02169B1432161F0BDF0B51A
:103EB0000B2705463F043846FFF79CFE042810D127
:103EC0002F4C2069102630432061DF2005432F4806
:103ED00045803846FFF78EFE052802D02169B143A0
:103EE0002161F0BDF0B50B2705463F043846FFF7CA
:103EF00081FE042810D1224C206910263043206115
:103F0000BF200543214845803846FFF773FE05284A
:103F100002D02169B1432161F0BDF0B50B27054600
:103F20003F043846FFF766FE042810D1144C206980
:103F300010263043206188200543144845803846C8
:103F4000FFF758FE052802D02169B1432161F0BD79
:103F5000F0B507460B200E460004FFF74BFE042881
:103F600017D1074C20691025284320613E800B2083
:103F70000004FFF73FFE05280BD02169A94307E0A5
:103F80000020024023016745AB89EFCD00F8FF1FF9
:103F90002161F0BD0D48C0690004000E70470B4858
:103FA000006A7047094A0029116901D0014300E005
:103FB000814311617047054A0146D26800200A42D8
:103FC00000D0012070470149C860704700200240BE
:103FD000854910B5884208D1441501212046FEF7D5
:103FE00091FD00212046FEF78DFD10BD30B5C36860
:103FF0007E4A8C6813400A680D792243CC686D03B1
:104000002C4322430C69496922430A431A43C26084
:1040100030BD0021016001718160C16001614161B9
:1040200070470029816801D0012200E0022211437B
:1040300081607047002A026901D00A4300E08A4388
:10404000026170470122D2030029C16801D01143E7
:1040500000E09143C1607047012292030029C168CA
:1040600001D0114300E09143C16070470122D205A5
:104070000029C16801D0114300E09143C16070473D
:104080000904114301627047C2681F239B069A43CB
:104090000A43C2607047012292050029C16801D01D
:1040A000114300E09143C160704701225049D2059D
:1040B0000028886801D0104300E090438860704772
:1040C00001224B4992050028886801D0104300E086
:1040D000904388607047012245491206002888688D
:1040E00001D0104300E0904388607047836A0B431F
:1040F000836242617047012252030029C16801D0E6
:10410000114300E09143C16070470122120400296D
:10411000C16801D0114300E09143C16070470122A2
:1041200012030029C16801D0114300E09143C1602E
:104130007047826800210123DB071A4382600F2346
:104140001B038268491CD20FD207994201D0002A72
:10415000F7D18168002901DB006C704700207047AF
:1041600081681022114381607047816804221143E5
:1041700081607047006C80B270470029C16802D02E
:104180000122114301E049084900C1607047C2683B
:1041900002239A43C260C2680A43C2607047002A81
:1041A000426801D00A4300E08A43426070470246F9
:1041B0000020CB0104D5926801231B069A4300E03E
:1041C00012680A4200D00120704701607047024621
:1041D0005368002012680B400A4202D0002B00D026
:1041E00001207047016070470024014003D2FFFFA7
:1041F000002701403248314901600021416081605F
:10420000C16030494161704710B583792C4902681B
:10421000002B26D00B6893430B604A6803689A43CF
:104220004A600279521813680468234313608A684D
:1042300003689A438A60CA6803689A43CA604279ED
:10424000102A05D051180A68006802430A6010BDA0
:104250008A6803681A438A60CA6800680243CA60B1
:1042600010BD0079401801689143016010BD002124
:10427000016001710C2242718171704710490A6915
:1042800002430A6170470E4A0146526900200A4201
:1042900000D0012070470A4948617047084A01462A
:1042A0001368002052690B400A4202D0002B00D054
:1042B0000120704702494861704700000000940FD8
:1042C00000040140FFFF6B00244801688907890F43
:1042D000016000218160C1600161416181698215D5
:1042E0001143816170471D4A1168890889000143A3
:1042F00011607047194A0029116801D0014300E09C
:10430000814311607047154A0029116801D00143AB
:1043100000E08143116070478A07130F10B50F2228
:104320009A408C080D49A40061188C6894438C60F5
:104330008A68984002438A6010BD08498A6902432E
:104340008A617047054900208969C90500D50120A7
:10435000704702498A6902438A6170470000014040
:104360000D49086070470C49486070470A498860E9
:104370007047094909480860704707490861704754
:104380000549074808607047034A0146D268002083
:104390000A4200D00120704700300040AAAA000065
:1043A000CCCC000018B50020F74900908868800642
:1043B00001D5012018BDCA20486253204862C86850
:1043C000A0229043C86020229302C868009C10403D
:1043D000641C00949C4201D00028F6D0C868800676
:1043E00001D5012000E00020FF224A6218BD18B567
:1043F00000200090E448C168490612D40021C94356
:10440000C16040220314C168009C1140641C0094E8
:104410009C4201D00029F6D0C068400601D400209B
:1044200018BD012018BD78B50024D74DCA200094CE
:104430002646686253206862FFF7D9FF002813D030
:104440002C60D2486860A868AC60D1482861EC61F3
:10445000EC62EC63CC4840304460EC600460FFF7F1
:10446000A1FF002800D00126FF206862304678BDF9
:10447000C548C16880229143C160704770B5054648
:104480000026C14CCA20606253206062FFF7AFFF74
:10449000002811D0A06840218843A060A068296846
:1044A0000843A060A86820612069A988090408431E
:1044B0002061FFF7DDFF0126FF206062304670BDFE
:1044C000002101607F214160FF2181607047AE497A
:1044D000002801D0FF2002E0CA2048625320486231
:1044E000704770B506460025A74CCA20606253206D
:1044F0006062FFF77CFF00280AD01020A168002E20
:1045000001D0014300E08143A160FFF7B1FF012525
:10451000FF206062284670BD9B49CA224A6253222E
:104520004A620028886802D02022104301E0DF227E
:1045300010408860FF2048627047F8B502460027A7
:10454000914D0C46002A0978AA68384605D05206D3
:104550002FD5084600F047FB2CE0520600D4E0704F
:10456000084600F034FB0604607800F030FB0002DF
:104570000643A07800F02BFB0643E07800040643D6
:10458000CA20686253206862FFF731FF00280CD010
:10459000804806402E60FFF76BFFA868800603D4B2
:1045A000FFF700FF002800D00127FF20686238468F
:1045B000F8BDE0702078A678000406436078E178C2
:1045C000000209040843DAE70021C170017041705C
:1045D0008170704770B50C466B490B686D49194086
:1045E0008A024D04920E22706D0E49066570490EC6
:1045F000A1705902490E40231940E17000280BD1E7
:10460000104600F0F0FA2070607800F0ECFA60706C
:10461000A07800F0E8FAA07070BD5B49886A49682C
:10462000704770B50C4601460026607800290ED010
:1046300000F0D9FAA07800F0D6FAE078A578000466
:1046400005436078217800024903084314E0C1065D
:1046500003D5EF2108400A306070E07800F0B7FA27
:104660000504607800F0B3FA00020543A07800F07A
:10467000AEFA0543207840030543434CCA206062EC
:1046800053206062FFF7B3FE00280CD0424805407B
:104690006560FFF7EDFEA068800603D4FFF782FE99
:1046A000002800D00126FF206062304670BD012145
:1046B0000170817041700021C1707047024610B5D1
:1046C00031480C464068C021C94301400002000E39
:1046D000CB04E070DB0E63708B069B0E0904490F60
:1046E000A3702170002A0CD100F07DFAE070607890
:1046F00000F079FA6070A07800F075FAA070207868
:10470000207010BD70B500211F4E0028B0681446FF
:1047100020D0400635D5207800F065FA207B00F0E7
:1047200062FA2078A578000405436078E1780002F9
:10473000090408430543207B00060543A0680543A0
:1047400060680543CA20706253207062F561FF20E3
:10475000706270BD400600D4E170207800F037FA36
:104760000504607800F033FA00020543A07800F0F9
:104770002EFA0543E07800040543207B00F027FA79
:10478000DAE7E170CAE700000028004001210000DC
:10479000FF007F007F7F7F003FFFFF000021C1708F
:1047A0000170417081700122816002734160704725
:1047B00070B5FC491446C96940258A02920E4B0423
:1047C00022705B0E63704B065B0EA3700B0C2B40CC
:1047D000E3708B009B0E23732B060B40A360F24B00
:1047E0001940616000280FD1104600F0FCF92070DC
:1047F000607800F0F8F96070A07800F0F4F9A0702B
:10480000207B00F0F0F9207370BD18B500220092F3
:10481000E44ACA235362532353620029916802D0A9
:104820000143916012E081439160000A01239B03E0
:10483000D168009C0140641C00949C4201D0002976
:10484000F6D0D168014201D1002000E00120FF2113
:10485000516218BDD348CA234362532343621206F0
:104860000A43D04940314A60FF2141627047CD4838
:10487000403040684004400C704710B5C94ACA2314
:1048800053625323536293680124A404A3439360A7
:104890009368084303439360FF20506210BDC148F2
:1048A0008068012189040840704710B5BD4ACA23B9
:1048B000536253235362936807242405A3439360F0
:1048C0009368084303439360FF20506210BDB549CD
:1048D000CA224A6253224A620122D205002888680D
:1048E00001D0104300E090438860FF204862704789
:1048F000AC49CA224A6253224A628A680123DB0415
:104900009A438A608A6802438A60FF20486270473F
:1049100070B50024A34BCA255D6253255D62DD6836
:10492000ED0307D59D14DE68F60303D5AC4201D034
:10493000641CF8E7DC68E40304D408431043D8633C
:10494000012000E00020FF21596270BD10B5954B99
:104950009A68964C2240002901D00243D8140243A1
:10496000CA205862532058629A60FF20586210BDD6
:1049700070B50D468B4914460B6B8D4A496B1A4036
:10498000C026F64331409602B60E2E705604760EBF
:1049900052066E70520EAA705A02520E40231A40EE
:1049A000EA700022E270CA04D20E62708A06920E89
:1049B0000904490FA2702170002817D1287800F04F
:1049C00012F92870687800F00EF96870A87800F085
:1049D0000AF9A870607800F006F96070A07800F01D
:1049E00002F9A070207800F0FEF8207070BD6D48CC
:1049F000806B70476B4A400040320029116802D03A
:104A00000143116070478143FBE7664A4032002949
:104A1000116801D0014300E0814311607047614992
:104A200040310A680323DB029A430A600A680243A2
:104A30000A6070475B4940310A6807231B029A43AA
:104A40000A600A6802430A607047564940310A68A2
:104A500003235B039A430A600A6802430A607047B3
:104A60005049802240310028086801D0104300E0FE
:104A70009043086070474B494031CA1300280868CA
:104A800001D0904300E0104308607047454A08B5E4
:104A90005032800080180090016008BD414908B57F
:104AA0005031800040180090006808BD3D494031F9
:104AB0000A6801239B049A430A600A6802430A6059
:104AC000704730B50022374CCA23636253236362B8
:104AD000E3681B0707D5A314E5682D0703D59A42A1
:104AE00001D0521CF8E7E26812070AD4A268D20685
:104AF00007D40143E162FFF755FC002802D00120F2
:104B000000E00020FF21616230BD30B5254ACA2394
:104B100053625323536204250446224BAC43403373
:104B200028400029916804D021439160196801430D
:104B300003E0A1439160196881431960FF2050622E
:104B400030BD18490246C96800201A4B194011426D
:104B500000D00120704780210843C003C00BC2432E
:104B60001048C3680B401A43C260704770B50D49C6
:104B7000002240310B6804210A4C0B40A168860CCE
:104B80000546F540ED0B1D400140E368294300094F
:104B90000340002903D01804000C00D00122104665
:104BA00070BD00000028004080808080F7F7FFFF84
:104BB0007F7F7F0078F9010000098021084380B2DF
:104BC000C2430D48C3680B401A43C26070470021BE
:104BD00003E0491C0A38C9B2C0B20A28F9D2090751
:104BE000090E0843704701090A2200075143000FCC
:104BF0004018C0B27047000000280040F8B5042AF1
:104C00002CD3830712D00B78491C0370401C521E12
:104C100083070BD00B78491C0370401C521E83077E
:104C200004D00B78491C0370401C521E8B079B0F4D
:104C300005D0C91ADF002023DE1B08C90AE0FBF7F4
:104C400091FAF8BD1D4608C9FD401C46B4402C43EE
:104C500010C0121F042AF5D2F308C91A521EF0D44C
:104C60000B78491C0370401C521EEAD40B78491C77
:104C70000370401C012AE4D409780170F8BDD2B257
:104C800010B513029A1813049A1800F00EF810BD0C
:104C900001E004C0091F0429FBD28B0701D5028063
:104CA000801CC90700D00270704700290BD0C307D1
:104CB00002D00270401C491E022904D3830702D58A
:104CC0000280801C891EE3E70022EEE70022DFE776
:104CD000002203098B422CD3030A8B4211D30023F9
:104CE0009C464EE003460B433CD4002243088B42D3
:104CF00031D303098B421CD3030A8B4201D3944660
:104D00003FE0C3098B4201D3CB01C01A5241830952
:104D10008B4201D38B01C01A524143098B4201D30C
:104D20004B01C01A524103098B4201D30B01C01A37
:104D30005241C3088B4201D3CB00C01A52418308B1
:104D40008B4201D38B00C01A524143088B4201D3DE
:104D50004B00C01A5241411A00D20146524110463E
:104D600070475DE0CA0F00D04942031000D34042B3
:104D7000534000229C4603098B422DD3030A8B42E9
:104D800012D3FC22890112BA030A8B420CD3890187
:104D900092118B4208D3890192118B4204D389016D
:104DA0003AD0921100E08909C3098B4201D3CB01AB
:104DB000C01A524183098B4201D38B01C01A524160
:104DC00043098B4201D34B01C01A524103098B4264
:104DD00001D30B01C01A5241C3088B4201D3CB004F
:104DE000C01A524183088B4201D38B00C01A524132
:104DF000D9D243088B4201D34B00C01A5241411A09
:104E000000D20146634652415B10104601D3404236
:104E1000002B00D54942704763465B1000D34042E7
:104E200001B50020C046C04602BD704770477047BC
:104E3000754600F025F8AE46050069465346C008A1
:104E4000C000854618B020B5FDF7D6FB60BC002732
:104E50004908B6460026C0C5C0C5C0C5C0C5C0C546
:104E6000C0C5C0C5C0C5403D49008D46704710B59E
:104E70000446C046C0462046FBF76DF910BD000051
:104E8000004870472411002001491820ABBEFEE7FE
:104E900026000200704730B47446641E2578641CF6
:104EA000AB4200D21D46635D5B00E31830BC18477F
:104EB0000801110164281E0100001201641E19017D
:104EC0000001130164281E0100001401641E190171
:104ED0000001150164281E0100001601641E19015D
:104EE0000000210164190101000E22016419100162
:104EF00000272301641910010027240164191001FF
:104F00000027250064190101000E260064190F0115
:104F100000013100641E0101010132006428010218
:104F2000010233006432010301033400643C0104D4
:104F30000104350064460105010536006450010690
:104F40000106110164370F01000F120164370F01D0
:104F50000010130164370F01000F140164370F01B3
:104F60000010150164370F02000F1601641E0E01B8
:104F70000000210164280101000E220164281F01A4
:104F800000002301641E0E010010240164281F018B
:104F900000002501641E0E010010260164281F0177
:104FA00000003100641E0101010132006428010289
:104FB000010233006432010301033400643C010444
:104FC0000104350064460105010536006450010600
:104FD0000106110164630F01000F120164631901DE
:104FE0000010130164630F01000F140164631901C1
:104FF0000010150164630F01000F160164631901AD
:105000000000210164420101000E220164422901D5
:1050100000002301641E0E010010240164422901D6
:1050200000002501641E0E010010260164423701B4
:1050300000003100641E01010101320064280102F8
:10504000010233006432010301033400643C0104B3
:10505000010435006446010501053600645001066F
:1050600001062CD18450000800000020C40000007C
:105070000401000848510008C4000020C4160000C4
:1050800020010008006CDC020000000000000000AD
:1050900001020304060708090101010101010100E1
:1050A00000000000000000000000000001000000FF
:1050B00000000000000000000000000000000000F0
:1050C00000000000000000000000000000000000E0
:1050D00000000000000000000000000000000000D0
:1050E00000000000000000000000000000000000C0
:1050F00000000000000000000000000000000000B0
:10510000000000000000000000000000000001009E
:10511000010000000000000000000000000000008E
:10512000000000000000000000000000000000007F
:105130000000000000000000000000000102030465
:0851400001020304060708093F
:04000005080025E5E5
:00000001FF
